:020000040800F2
:10000000F011002021020008250200082702000844
:10001000290200082B0200082D0200080000000041
:100020000000000000000000000000002F02000897
:100030003102000800000000330200083502000809
:1000400037020008370200083702000837020008AC
:10005000370200083702000837020008370200089C
:10006000370200083702000837020008370200088C
:10007000370200083702000837020008370200087C
:10008000370200083702000837020008370200086C
:100090007B260008370200083702000837020008F4
:1000A000370200083702000837020008370200084C
:1000B000F71B00080F1C0008451C00083702000849
:1000C000370200083702000837020008370200082C
:1000D00037020008EB07000877090008452E0008E2
:1000E000F14600083702000837020008370200080E
:1000F00037020008370200083702000837020008FC
:100100003702000837020008571C000837020008B1
:1001100037020008370200083702000837020008DB
:1001200037020008370200083702000837020008CB
:1001300000F002F800F05FF80AA090E8000C82449A
:100140008344AAF10107DA4501D100F054F8AFF277
:10015000090EBAE80F0013F0010F18BFFB1A43F0A5
:100160000103184744CE000064CE00000A444FF05B
:10017000000C10F8013B13F0070408BF10F8014B06
:100180001D1108BF10F8015B641E05D010F8016B4B
:10019000641E01F8016BF9D113F0080F1EBF10F8AF
:1001A000014BAD1C0C1B09D16D1E58BF01F801CBD2
:1001B000FAD505E014F8016B01F8016B6D1EF9D555
:1001C0009142D6D37047000000230024002500266A
:1001D000103A28BF78C1FBD8520728BF30C148BFAA
:1001E0000B607047642908F0B585002070471FB583
:1001F0001FBD10B510BD08F07DFF1146FFF7F7FFDA
:1002000000F02AF808F09BFF03B4FFF7F2FF03BCED
:1002100000F066FA30BF72B662B680F308887047A5
:1002200008480047FEE7FEE7FEE7FEE7FEE7FEE7D9
:10023000FEE7FEE7FEE7FEE703480449044A054BF4
:100240007047000031010008F00B0020F011002081
:10025000F00D0020F00D002008B500203E49086098
:10026000092000F0E4F9482000F084F8022000F0B2
:10027000C9F9012000F0C6F900F008FE00F040FEC8
:100280003648006818B901203549087002E000209E
:100290003349087001F077F84FF4E131482000F05D
:1002A00039FA4FF41651242000F0F0FA4FF4E131FE
:1002B000242002F04CFD01F0C1FA01F02FFB01F007
:1002C00097FB01F0FDFB01F021F901F0D1FC07F0F3
:1002D000E0FC07F0F2FC002141F61F4001F026FA95
:1002E0001E480830006808B902F075FC02F010FEE4
:1002F00003F020F801F042FF002006230322022130
:100300000090012001F064FF03F04CF823E0154851
:100310000078012804D102F0BFFC002011490870C8
:100320001148007820B908F08CFA07F063FF01E06B
:1003300008F024FB02F058FA03F00AF800F0AFFCD2
:1003400001200A49087000200949087000BF0748C9
:1003500000780028FBD1DAE7E40000203081214258
:10036000660000207C0000200400002065000020C2
:10037000640000204FF0E021096921F004014FF0F2
:10038000E0221161C21700EB5272C2F3C702234B85
:100390001A701946097801EB4102C2EBC1114FF600
:1003A000FF7202EAC1011E4A1180704701461B4AD2
:1003B00012784A434FF0E0235A6100229A610122E9
:1003C0001A6100BF4FF0E022106900F001021AB17B
:1003D00000F48032002AF5D000224FF0E0231A61A9
:1003E0009A61704701460E4A12884A434FF0E02353
:1003F0005A6100229A6101221A6100BF4FF0E02287
:10040000106900F001021AB100F48032002AF5D020
:1004100000224FF0E0231A619A617047F400002037
:10042000F6000020A34A0A400243A34B1A6070471B
:100430000146072323EA010212029F4B1B1D186885
:100440004FF6FF0318409D4B184310439A4B1B1D5A
:10045000186070472DE9F0410746884614461D464E
:100460002846FFF7E5FFC5F1040007FA00F60F2064
:10047000284100EA0800064306F00F06E21704EBE5
:10048000D2625211920002F1E022D2F800212146FC
:10049000E31704EBD3635B11A4EB431C012303FAC2
:1004A0000CF31A432046E31704EBD3635B119B0064
:1004B00003F1E023C3F800218148005D40EA061003
:1004C0007F490855BDE8F08170B504460B46CE174C
:1004D00001EB9676C6F38700CE1701EB9676B61041
:1004E000A1EB8606B606350E764B9B6943F00103F9
:1004F000744EB3614FEAB63353F820300F26AE4046
:10050000B343714E46F82030334653F8203004FA96
:1005100005F61E436C4B43F820606C4B1B680126AC
:100520008E403343694E336002F0010343B1674BA1
:100530000C331B6801268E403343644E0C36336007
:1005400002F0020343B1614B08331E6801238B4064
:100550001E435E4B08331E6070BD00B50020594934
:100560000861C8601420486100208861C86108469D
:10057000006840F00100086008464068544908409F
:100580005049486008460068524908404D49086093
:100590000846006820F4802008600846406820F47F
:1005A000FE0048600020886000214FF00060FFF7E7
:1005B00039FF00BD10B540480830006840F0040025
:1005C0003D49083108603F48C06940F080503D49CE
:1005D000C8614148406840F480703F49486008461F
:1005E000006840F0040008600846006840F002001F
:1005F0000860FFF70FFE10BD3048001D2E49091D91
:1006000008607047014649062E4A926942F001028D
:100610002C4B9A612C4A083A526822F0E0622A4B2D
:10062000083B5A601A4652680A435A60704730B510
:1006300004460025FFF791FF2248006840F480300F
:100640002049086000BF1F480068400C0028FAD00D
:100650004FF480601B494860A01EC4B20846406841
:1006600040EA844048600846406840F48030486072
:100670001A48006840F032001849086011480068C4
:1006800040F080700F49086000BF0E480068400EBF
:100690000028FAD00B48406840F002000949486041
:1006A00005E008484068C0F3870505F00305022D02
:1006B000F7D130BD80FFFF1F08ED00E00000FA0514
:1006C00000E400E000100240080001400004014086
:1006D0000000FFF8FFFFF6FE00700040002002401F
:1006E000014600BF704700BFFA4A128802F040027C
:1006F000002AF9D0C2B2F74B1B1D1A807047F64989
:10070000088000BFF449091F098801F04001002951
:10071000F8D070472DE9F05F05460E4630010AF02B
:10072000C9FD8146ED4905FB01F00AF0C3FD824693
:1007300049460AF075FC074638460AF083FD84B244
:1007400020460AF0B7FD834639460AF0F8FE824695
:100750004FF083410AF0F6FD81460AF073FD8046B2
:100760004FF6FF7000EA041404EB080084B2DC4882
:10077000806940F00400DA4988610846806940F4E5
:1007800080408861D748006820F47F60D5490860C0
:100790000846006840F40B600860D148C06840F427
:1007A0008040CF49C8600846C06820F48040C860D7
:1007B000C948001D0480001D008842F20C01084356
:1007C000C549083108800846008840F480700880D8
:1007D0000846008840F020000880022325220121DD
:1007E0000020FFF737FEBDE8F09FBB48001F0088E0
:1007F00000F0200000283CD0BB49097851B9BB4922
:100800000978491CC9B2B94A11700A2902DD0121CF
:10081000B54A1170B0490988C8B2B549097869B9B3
:10082000B4490978FE2909D1B3490978FF2905D1CE
:100830000121AF4A11700021B04A1170AC4909780A
:1008400001290FD1AE49AD4A12788854AB490978D5
:10085000491CAA4A117011460978082902D10021C1
:10086000A34A1170A3490978A34A1170A1490870DD
:1008700000BF002070479749091D088000BF9549B7
:10088000098801F040010029F9D070472DE9F05F97
:1008900005460E4630010AF00DFD81468F4905FBE5
:1008A00001F00AF007FD824649460AF0B9FB074607
:1008B00038460AF0C7FC84B220460AF0FBFC8346A7
:1008C00039460AF03CFE82464FF083410AF03AFD79
:1008D00081460AF0B7FC80464FF6FF7000EA041428
:1008E00004EB080084B27E48806940F004007C4933
:1008F00088610846C06940F40030C8617948001F2B
:10090000006820F47F407749091F086008460068A6
:1009100040F40B40086073480830006840F4806081
:100920007049083108606E48006940F480206C49C5
:1009300008610846006920F4802008616548083095
:100940000480001D008842F20C01084361490C310B
:1009500008800846008840F48070088008460088B7
:1009600040F0200008800223262201210020FFF70A
:1009700071FDBDE8F09F2DE9FF5F5648008800F04B
:10098000200000287ED05348001D00885D49086083
:10099000084600684B2803D101205B4908700AE033
:1009A00058480068492803D0564800684A2802D1B0
:1009B0000020554908705548007800284DD152480C
:1009C0000078D0B94F480068412809DB4D480068DD
:1009D000482805DC4B48007840384D4908703CE019
:1009E00048480068082804DC4648007848490870F0
:1009F00033E00020464908702FE043480078012882
:100A00002BD140480068432806D100204149087096
:100A10000120414908700FE03A480068472806D194
:100A200001203C49087000203B49087004E0002088
:100A3000384908703849087032480068412803D0A6
:100A400030480068452805D12E48007840383049A4
:100A5000087002E000202E4908702A4800687B28B0
:100A600002D101202D490870264800687D2802D156
:100A700002202A4908702948007801280CD1214811
:100A8000007800E08AE02649264A127888542548F2
:100A90000078401C234908702048007802287DD146
:100AA0001F48C078502803D101201F490870B9E0C1
:100AB0001B48C078572803D101201C490870B1E0B9
:100AC0001748407823286AD01648007818490870DB
:100AD00068E00000004400400438014040420F003C
:100AE00000100240040801407800002003010020AB
:100AF0007A000020010100200201002000010020F6
:100B00006F000020FC0000208D0000206600002007
:100B1000020000200000002001000020040100204D
:100B200088020020050100207B0000207C000020BE
:100B300006010020C0490978C04A1278881A09F0D5
:100B40005EFE804642460B460020BD4908F094FEFA
:100B500004460D46B9490978491EBA4A515CA1F1CB
:100B6000300009F04CFE064622462B4609F0AEFE48
:100B700082468B46B44800680AF0B8F952465B4694
:100B8000CDE9000109F0BCFBCDE9020109F086FBCB
:100B9000AD490860A9480078401E01E04FE041E0FF
:100BA000A6490870A54800780428C3DAA54840780B
:100BB0003038092835D2DFE800F0050C13181D2263
:100BC000272C3300A04800680AF020FB9F490860EA
:100BD00027E09D4800680AF019FB9D49086020E065
:100BE000994800689B4908601BE0974800689A494B
:100BF000086016E0944800689849086011E092483F
:100C00000068974908600CE08F48006895490860C3
:100C100007E08D4800680AF0F9FA9349086000E09F
:100C200000BF00BF002091490870834908708349C4
:100C30000870854908603221824808F0FBF80020DE
:100C400004B0BDE8F09F8A480078F8B18948006890
:100C50005A281BD00020864A107086480068012858
:100C600006DB84480068082802DC824801780BE033
:100C700080480068412807DB7E480068482803DC7C
:100C80007C4800784038C1B208467047794800680F
:100C90005A2802D10120764A10700020F5E72DE98C
:100CA000F04775480068002801DD002506E072481D
:100CB0000068002801DA022500E001256F4800687D
:100CC000002801DD002606E06C480068002801DAF3
:100CD000022600E001266A480068002801DD00279E
:100CE00006E067480068002801DA022700E00127D3
:100CF00064480068002802DD4FF0000808E0614801
:100D00000068002802DA4FF0020801E04FF0010805
:100D10005D48008800F5004084B2FF20FFF7EFFC3B
:100D2000FE20FFF7ECFC54490A68002A01DB11465B
:100D300000E05142C8B2FFF7E2FC2846FFF7DFFCB3
:100D40004E490A68002A01DB114600E05142C8B250
:100D5000FFF7D5FC3046FFF7D2FC49490A68002A64
:100D600001DB114600E05142C8B2FFF7C8FC38462B
:100D7000FFF7C5FC43490A68002A01DB114600E081
:100D80005142C8B2FFF7BBFC4046FFF7B8FC201247
:100D9000FFF7B5FCE0B2FFF7B2FCFF2001F0CCFF9B
:100DA000FE2001F0C9FF3449D1F80090B9F1000FDD
:100DB00001DB494601E0C9F10001C8B201F0BCFF06
:100DC000284601F0B9FF2D49D1F80090B9F1000F84
:100DD00001DB494601E0C9F10001C8B201F0ACFFF6
:100DE000304601F0A9FF2649D1F80090B9F1000F73
:100DF00001DB494601E0C9F10001C8B201F09CFFE6
:100E0000384601F099FF1F49D1F80090B9F1000F61
:100E100001DB494601E0C9F10001C8B201F08CFFD5
:100E2000404601F089FF201201F086FFE0B201F098
:100E300083FFBDE8F08700000501002006010020C7
:100E4000000024408802002008010020BC0000208F
:100E5000C0000020A8000020AC000020B00000204E
:100E6000B4000020B8000020F000002004010020A1
:100E70000C010020FC000020080000200C000020D5
:100E80001000002014000020D800002017488069BE
:100E900040F00800154988611548006820F470008A
:100EA000134908600846006840F440100860104884
:100EB0000830006840F400500D4908310860704760
:100EC00018B900210B4A11600FE00B490968491C51
:100ED000094A1160814208D106490968C943074A95
:100EE000C2F8B4110021044A11607047001002409A
:100EF000040C0140B48121421001002000802142F5
:100F00005948806940F0080057498861574800688F
:100F10005749084055490860084600685549084344
:100F20005249086051480830006840F480504F49E9
:100F3000083108600846006840F480400860704747
:100F400001464D48006828B94C480088401C4B4A6F
:100F5000108002E00020494A10804748006828B904
:100F60004748007810B90120454A1070454800787C
:100F7000B0B943480078012807D143480078401CA5
:100F8000414A107001203F4A10703F480078022803
:100F900006D100203C4A10703C4A10800220704765
:100FA00035480068012804D10020354A1070354AC0
:100FB00010703548007801281CD134480088401C46
:100FC000324A10801046008888420ADD2B4800888B
:100FD000884206DA00202C4A10702C4A108001202A
:100FE000DDE726480088884204DD0020264A10708C
:100FF000264A10800020D2E72548007838B11E48E4
:10100000006820B9002022490870012070471A4862
:101010000068012801D11E4908700020F6E71D482C
:10102000008840B91448006828B91B480088401C53
:101030001949088002E000201749088016480088F6
:10104000C82807DD012013490880002012490880C4
:10105000012070470F480088012802D100200D4967
:1010600008800020F5E7000000100240040C014059
:10107000FFFFF0F000000808388121421A0100202B
:101080001401002015010020160100201801002085
:101090001C010020200100201E01002010B50A467E
:1010A0001AB10123FE4C236002E00023FC4C2360B4
:1010B000002116E00023FA4C3434236000F0800352
:1010C0001BB10123241D236003E00023F44C3834BA
:1010D00023600123F24C343423604306180E4B1C6A
:1010E000D9B20829E6DB0123ED4C236010BD30B5F1
:1010F00000241CE004F1B001C8B20021FFF7CEFFCC
:1011000000210846FFF7CAFF00211020FFF7C6FFA5
:10111000002508E0E34901EBC501085D0121FFF767
:10112000BDFF681CC5B2802DF4DB601CC4B2082C66
:10113000E0DB30BD00B500218D20FFF7AFFF0021BF
:101140001420FFF7ABFF0021AF20FFF7A7FF00BD82
:1011500000B500218D20FFF7A1FF00211020FFF72F
:101160009DFF0021AE20FFF799FF00BD30B50024A0
:101170000CE0002506E00020CA4901EBC501085536
:10118000681CC5B2802DF6DB601CC4B2082CF0DBF5
:10119000FFF7ADFF30BDF0B5144600267F2801DC17
:1011A0003F2900DDF0BD0B46CF1701EB5777FF104D
:1011B000C7F10707FAB2CF1701EB5777FF10A1EB82
:1011C000C707FDB2C5F107070123BB40DEB24CB132
:1011D000B44B03EBC0039B5C3343B24F07EBC00738
:1011E000BB5408E0AF4B03EBC0039B5CB343AD4F74
:1011F00007EBC007BB5400BFD4E72DE9F04F804692
:101200000C4615461E46A346A5F12000C5B2002790
:101210003EE00C2E07D105EB4500A34901EB800011
:1012200010F8079004E0A14800EB051010F80790B3
:101230004FF0000A26E009F0800028B12146404620
:10124000099AFFF7A8FF09E0099808B9012000E012
:101250000020024621464046FFF79DFF4FEA4960C5
:101260004FEA1069601CC4B2A4EB0B00B04205D178
:101270005C4608F1010000F0FF0806E00AF10100F9
:1012800000F0FF0ABAF1080FD5DB00BF781CC7B227
:10129000B742BEDBBDE8F08F10B50246012000E08A
:1012A00050430B1EA1F10104E1B2F9D110BD2DE9AB
:1012B000FF4F81B0074691461E460E9D4FF0000A33
:1012C000002439E0301B401EC1B20A20FFF7E4FFC2
:1012D000B9FBF0F00A21B0FBF1F201FB1208BAF100
:1012E000000F16D1701EA04213DDB8F1000F0ED111
:1012F0000120AB4605EBDB71491001FB0471009046
:10130000C8B22B4620220299FFF777FF12E04FF078
:10131000010A0120AB4605EBDB71491001FB0471AA
:101320000090C8B208F13001CAB22B460299FFF70B
:1013300064FF00BF601CC4B2B442C3DB05B0BDE8AB
:10134000F08F78B505460E46144618E07A2D03DD79
:10135000002506F11000C6B23A2E04DD0020054635
:101360000646FFF703FF0120009022780C23314648
:101370002846FFF742FF05F10800C5B2641C20783B
:101380000028E3D178BD10B54948806940F01000CD
:10139000474988610846806940F0010088614548F6
:1013A0004068C0F31300434948600846406842491A
:1013B0000843404948600846006820F00F00086074
:1013C0000846006840F0020008603C48006840F4AD
:1013D00080703A4908603648006A20F001003449BC
:1013E00008623748008820F00100354908803348FA
:1013F000006820F4807031490860002028493C31A1
:1014000008606420FEF7EEFF01202E49C1F8BC0100
:101410000021AE20FFF742FE0021D520FFF73EFE5F
:1014200000215020FFF73AFE0021A820FFF736FEEA
:1014300000213F20FFF732FE0021D320FFF72EFED0
:1014400000210846FFF72AFE00214020FFF726FE74
:1014500000218D20FFF722FE00211420FFF71EFE41
:1014600000212020FFF71AFE00210220FFF716FEC0
:101470000021A120FFF712FE0021C020FFF70EFE81
:101480000021DA20FFF70AFE00211220FFF706FEF6
:1014900000218120FFF702FE0021EF2014E0000070
:1014A00080012242BA0200202EB70008A2BB000829
:1014B0000010024000100140000020220070004097
:1014C000306C004000002242FFF7E8FD0021D920E7
:1014D000FFF7E4FD0021F120FFF7E0FD0021DB2014
:1014E000FFF7DCFD00213020FFF7D8FD0021A4200C
:1014F000FFF7D4FD0021A620FFF7D0FD0021AF208B
:10150000FFF7CCFDFFF732FE10BD00006D4880698B
:1015100040F004006B4988616B48006820F470005B
:10152000694908606748806940F4007065498861CE
:101530000846C06840F40070C8600846C06820F4DF
:101540000070C8600846406820F440404860084683
:10155000406840F4004048605C4800685C490840CE
:101560005A4908600846006808600846006820F488
:1015700080700860081D006820F00200091D0860E6
:101580000846006820F4602008600846006840F4BF
:10159000602008600846006840F480100860084633
:1015A000006820F40060086048482830006820F493
:1015B000700046492831086008460068002008602D
:1015C00042480C30006820F4700040490C3108603B
:1015D0000846006840F4603008603C48001D006820
:1015E00040F001003949091D08600846006840F0D4
:1015F0000800086000BF3548001D006800F00800C2
:101600000028F8D13148001D006840F004002F493F
:10161000091D086000BF2D48001D006800F004008F
:101620000028F8D17047014628483030006820F083
:101630001F00264A303210601046006808431060D0
:101640002248001D006840F48000204A121D1060EE
:1016500000BF1E48001F006800F002000028F8D0FC
:101660001A484830006880B270472DE9F04F87B0C3
:101670000520FFF7D8FF019009F0D8F880464FF019
:101680006632144B09F022F90022134BCDE9020116
:1016900009F01CF90022114BCDE9040109F016F9FB
:1016A000064600220E4B08F0E7FE044600220D4BD2
:1016B00008F0E2FE824609F073F80690069807B03B
:1016C000BDE8F08F001002400008014004240140F2
:1016D000FFFFF00066660A40000026400000594007
:1016E0000000F03F0000B0405048806940F0080022
:1016F0004E4988610846806940F0100088614C4876
:10170000006820F0FF004A4908600846006840F081
:10171000220008604748006820F47F0045490860BF
:101720000846006840F408100860704700B503469A
:101730000A46FFF7D9FF3D48806940F400503B4915
:1017400088610846806940F0100088613948406827
:1017500020F0FF00374948600846406840F0BB0071
:1017600048600846006820F07F400860084600682E
:1017700040F03B40086030480380001F02802E4844
:101780001438008840F060002B491439088008465E
:10179000008840F4C0400880081D008840F06000C8
:1017A000091D08800846008840F4C0400880081FD2
:1017B000008840F00800091F08800846008840F4AF
:1017C00000600880081D008840F00800091D08809E
:1017D0000846008840F400600880081D008840F03A
:1017E0000100091D08800846008840F010000880AC
:1017F0000846008840F4807008800846008840F45D
:10180000805008800C481830008840F400400A4995
:10181000183108804FF4004007492C3908800846E9
:10182000008840F00100088000BD00000010024068
:10183000000C0140001001402C34014010B5FA4862
:10184000406840F48070F8494860F848C06940F04A
:101850000100F649C8610846806940F004008861CB
:101860000846806940F008008861F148006820F06F
:101870007040EF4908600846006840F0804008600A
:10188000EC48006820F47040EA49086008460068A7
:1018900040F4804008604FF08040808940F00100B3
:1018A0004FF0804188810846808940F0400088815F
:1018B00001231C2203211846FEF7CCFD00204FF027
:1018C000804108854FF6FF7088850846008820F41F
:1018D000407008800846008820F0600008800846B4
:1018E000008B40F0010008830846008B40F48070B4
:1018F00008830846008C20F0020008840846008C0B
:1019000020F0200008840846008940F00300088188
:101910000846008840F00100088010BD10B5C3489B
:10192000C06940F00200C149C8610846806940F0C2
:1019300008008861BE48001F006820F07F40BC4955
:10194000091F08600846006840F088400860BA48EF
:10195000008840F00100B84908800846008840F03F
:101960004000088001231D2203211846FEF772FD66
:101970000020B1491C3108804FF6FF70091D088016
:10198000AD480C38008820F44070AB490C39088011
:101990000846008820F060000880A7480C300088C6
:1019A00040F00100A4490C3108800846008840F44A
:1019B00080700880A0481430008820F002009E4902
:1019C000143108800846008820F0200008809A48DA
:1019D000001F008840F003009749091F08809648BF
:1019E0000C38008840F0010093490C39088010BD84
:1019F00010B58E48C06940F004008C49C8610846A3
:101A0000806940F0080088618A48006820F07F40C3
:101A1000884908600846006840F0884008608748A8
:101A2000008840F00100854908800846008840F0A1
:101A30004000088001231E2203211846FEF70AFDFC
:101A400000207E491C3108804FF6FF70091D088078
:101A50007A480C38008820F4407078490C390880A6
:101A60000846008820F06000088074480C30008828
:101A700040F0010071490C3108800846008840F4AC
:101A8000807008806D481430008820F002006B4997
:101A9000143108800846008820F02000088067483C
:101AA000001F008840F003006449091F0880634854
:101AB0000C38008840F0010060490C39088010BDE6
:101AC00010B55A48C06940F008005849C861084636
:101AD000806940F0040088615548001F006820F0CC
:101AE000FF005349091F08600846006840F04400A1
:101AF0000860C804808940F00100C9048881084654
:101B0000808940F040008881012332220321184659
:101B1000FEF7A0FC00204A4908804FF6FF70091D1F
:101B2000088047482838008820F440704449283904
:101B300008800846008820F060000880404810387F
:101B4000008840F001003E491039088008460088AE
:101B500040F4807008803A480838008820F002007D
:101B60003749083908800846008820F0200008809E
:101B700033482038008840F003003149203908807C
:101B80002F482838008840F001002D492839088066
:101B900010BD0146022906D003290DD0042914D016
:101BA000052924D11AE04FF08042928C10B2002215
:101BB0004FF080439A841CE01F4A1832128810B2FA
:101BC00000221D4B18331A8013E01C4A1832128869
:101BD00010B20022194B18331A800AE0184A121F5B
:101BE000128810B20022164B1B1F1A8001E0002041
:101BF00000BF00BF70474FF08040008A4FF0804028
:101C0000008A20F001004FF08041088270470A48A6
:101C1000001D00880848001D008820F001000649CA
:101C2000091D0880704700000000014000100240BC
:101C300004080140000C01400C0400400C08004066
:101C4000280C0040084800880748008820F0010060
:101C5000054908807047054800880448008820F03E
:101C6000010002490880704710080040100C004035
:101C7000F748806940F00800F5498861F548006838
:101C800020F47F40F34908600846006840F44C5057
:101C90000860704710B5EF48006820F47040ED49C7
:101CA00008600846006840F4405008600120EA4996
:101CB0000860EA48D0F82C0108B9002010BD0120C6
:101CC000E549091F0860FEF771FB0020E349C1F8F0
:101CD000AC01E1488038006808B10020EEE701203F
:101CE000FEF764FB0020DC49091F08600120E5E7DE
:101CF00010B5D848006820F47040D64908600846FE
:101D0000006840F4405008600020D349091F086073
:101D1000D249C1F8AC010120FEF748FB0120CE49B1
:101D2000091F0860CD49C1F8AC01FEF73FFB10BDAB
:101D300010B50024C748006820F47040C549086009
:101D40000846006840F4004008600120C24908606D
:101D5000FEF72CFB0120C149C1F8A801FEF726FBC4
:101D60000AE0601CC4B2322C03DDFFF7C1FF002083
:101D700010BD0120FEF71AFBB74880380068002824
:101D8000EFD1B549091F08600120F1E710B5002027
:101D9000B149091F0860AF48006820F47040AD49A0
:101DA00008600846006840F4405008600020AB49D5
:101DB000C1F8AC010120FEF7F9FA0120A649091F7C
:101DC0000860FEF7F3FA0020A449C1F8A80110BD8D
:101DD00010B50020A049091F08609E48006820F443
:101DE00070409C4908600846006840F44050086014
:101DF00001209A49C1F8AC01FEF7D8FA01209649B2
:101E0000091F0860FEF7D2FA00209449C1F8A80122
:101E100010BD70B504468F48006820F470408D49AD
:101E200008600846006840F44050086000208A4975
:101E3000091F0860002516E0E00987490860600670
:101E4000040E0120FEF7B2FA01208449C1F8A8016E
:101E5000FEF7ACFA00208049091F08600120FEF758
:101E6000A5FA681CC5B2082DE6DB70BD2DE9F0416E
:101E700005460E4617469846FFF70CFF10B901209D
:101E8000BDE8F0816906080EFFF7C3FFFFF750FFBA
:101E900018B9FFF72DFF0120F2E73046FFF7B9FF31
:101EA000FFF746FF00240BE018F80400FFF7B1FF2E
:101EB000FFF73EFF18B9FFF71BFF0020E0E7641CA7
:101EC000BC42F1DBFFF714FF0020D9E770B50546EF
:101ED00000246048006820F470405E4908600846AD
:101EE000006840F400400860002617E000205A49CE
:101EF000091F08600220FEF759FA01205749C1F86E
:101F0000A8016006040E54488038006808B1601CBF
:101F1000C4B20220FEF74AFA701CC6B2082EE5DBF6
:101F200015B1FFF733FF01E0FFF752FF204670BD08
:101F30002DE9F04106460F4614461D46FFF7AAFE5E
:101F400010B90120BDE8F0817106080EFFF761FFAE
:101F5000FFF7EEFE18B9FFF7CBFE0120F2E7384697
:101F6000FFF757FFFFF7E4FEFFF794FE012101EBB7
:101F70004601C8B2FFF74DFFFFF7DAFE0DE0012C76
:101F800004D10020FFF7A2FF287003E00120FFF733
:101F90009DFF28706D1C601EC4B2002CEFD1FFF7AE
:101FA000A7FE0020CEE770B505460E460024FFF7D9
:101FB00071FE2846FFF72DFF641CFFF7B9FE30467F
:101FC000FFF727FF641CFFF7B3FEFFF763FE691CF2
:101FD000C8B2FFF71EFF641CFFF7AAFE0020FFF740
:101FE00075FF0446FFF784FE204670BD2DE9F041E1
:101FF0000746884615461E460024FFF74BFE384626
:10200000FFF707FFFFF794FE4046FFF702FFFFF7D9
:102010008FFEFFF73FFE791CC8B2FFF7FAFEFFF70D
:1020200087FE00BF0DE0681EA04204D00120FFF72C
:102030004DFF305503E00020FFF748FF3055601C8E
:10204000C4B2AC42EFDBFFF753FE2046BDE8F0819F
:1020500000100240040C0140AC812142008021426A
:102060002DE9F04180460D4616461F460024FFF735
:1020700011FE4046FFF7CDFEFFF75AFE2846FFF758
:10208000C8FEFFF755FE00BF06E0385DFFF7C1FE52
:10209000FFF74EFE601CC4B2B442F6DBFFF728FE29
:1020A0000120BDE8F08170B505460E461446314664
:1020B0002846FFF778FF2070012070BD37B5044631
:1020C0000D4602AB012229462046FFF7C9FF3EBD5F
:1020D0002DE9F8430746884614461D46089E6A4681
:1020E00041463846FFF7DFFF28B3601CFF2101FAA5
:1020F00000F0C4F108012944491EFF220A4110439F
:1021000000F0FF09C5F1080006FA00F0C6B2C4F1FC
:10211000070006419DF8000000EA090000909DF8C4
:102120000000304300909DF8002041463846FFF7FC
:10213000C5FFBDE8F8830020FBE7F8B506460F466B
:1021400014461D466A4639463046FFF7ACFF2DB1AE
:102150000120A0409DF80010084305E00120A040A8
:102160009DF8001021EA0000C0B200909DF8002008
:1021700039463046FFF7A2FFF8BD000010B51248FF
:10218000806940F00800104988611048006820F01C
:1021900070400E4908600846006840F00040086042
:1021A0000A480830006840F40040084908310860D7
:1021B00001220F211046FEF787F902232822012170
:1021C0001846FEF747F910BD00100240040C01400C
:1021D0002DE9F04704460D4616461F46DDF82090CF
:1021E0004FF0000814B10DB106B117B90120BDE8D8
:1021F000F087601EC4B2681EC5B2701EC6B2781EDB
:1022000087B2FE48806940F00100FC4988610846B9
:10221000806940F0080088610846C06940F000709D
:10222000C861F748006820F0FF00F54908600846DB
:10223000006840F0B8000860F1480830006840F4D9
:102240004070EF4908310860EE48406840F4804033
:10225000EC4948600020EC4908600846006840F0FE
:102260000100086008E008F101001FFA80F8B8F1E9
:10227000640F01DD0220BAE7E348001D006800F0AA
:1022800001000028EFD0E0480068DF4908600846F8
:10229000006808600846006808600846006840F06A
:1022A000100008600846006808600846006808607A
:1022B0000020D5491C3108600846006840EA897052
:1022C00008600846006840EA046008600846006844
:1022D00040EA055008600846006840EA0640086089
:1022E0000846006838430860C748006820F00100CD
:1022F000C549086009E008F101001FFA80F84FF6AF
:10230000F070804501DD032071E7BF48001D0068C3
:1023100000F001000028EED1BC48006840F0010048
:10232000BA490860B9481C30006820F00100B7497C
:102330001C310860B5480C30006840F00100B3491A
:102340000C310860B148001D0068B049091D0860E3
:10235000AE4814300068AD49143108600020AB4924
:10236000403108600021A94844300160A7481C3072
:10237000006840F00100A5491C310860A3480068CE
:102380000020A2490860A0481430006840F0020014
:102390009D49143108600223142200210120FEF718
:1023A00059F8002023E7F0B505460E46059C9648EF
:1023B0000830006800F0806008B1002111E0924808
:1023C0000830006800F0006008B1012109E08E4883
:1023D0000830006800F0805008B1022101E0FF20C1
:1023E000F0BD00278948803800EB011007601EB956
:1023F000C5F30A056D0502E025F06045ED00834850
:10240000803800EB011000682843804F803F07EBC5
:10241000011738607D48803800EB0110006840EA01
:1024200086077A48803800EB0110076077488038CB
:1024300000EB0110006840EA42077448803800EB66
:102440000110076003F00F037048803800EB0110A3
:10245000406820F00F076D48803800EB011047609E
:102460006A48803800EB011040681843674F803F8E
:1024700007EB01177860E0790006A77940EA07408A
:10248000677940EA0727207907436048803800EBE6
:102490000110C760E0780006A77840EA0740677837
:1024A00040EA072027783843584F803F07EB011751
:1024B000B8605648803800EB0110006840F0010712
:1024C0005248803800EB01100760084688E7014653
:1024D000002021B1012916D002293CD127E04A4A27
:1024E0000832126802F001021043474A08321268AB
:1024F00002F002021043444A0832126802F080627D
:1025000040EA126029E0404A0832126802F00102F3
:1025100010433D4A0832126802F0020210433A4A60
:102520000832126802F0006240EA526015E0364A52
:102530000832126802F001021043334A083212686E
:1025400002F002021043304A0832126802F0805250
:1025500040EA926001E0052000BF00BF70470146DD
:1025600029B929480C30006800F0030070470129A0
:1025700005D125481030006800F00300F6E7002080
:10258000F4E7F0B5DDE90554204E503E06EB0016A9
:10259000366806F00406167016783EB91B4E503E9B
:1025A00006EB00163668760D0E6006E0174E503EBC
:1025B00006EB00163668F6080E60144E503E06EB29
:1025C0000016366806F002061E70104E503E06EBEE
:1025D0000016766806F00F062E700C4E503E06EB85
:1025E0000016B6682670094E503E06EB0016B66817
:1025F000360A6670054E503E0AE0000000100240A8
:10260000040C0140000001400064004000660040EE
:1026100006EB0016B668360CA670D24E06EB001616
:10262000B668360EE670CF4E06EB0016F6682671D9
:10263000CC4E06EB0016F668360A6671C94E06EBFC
:102640000016F668360CA671C64E06EB0016F66844
:10265000360EE67130B9C44E366846F02006C24FD9
:102660003E6009E0012807D1BF4E361D366846F0AE
:102670002006BD4F3F1D3E60F0BD10B58AB0BBA126
:1026800003C9CDE9040102A806A907AB08AACDE950
:10269000001009A90020FFF774FF00240FE0072CA9
:1026A00004D102A8005DB34908700AE002A8005DE9
:1026B00004A9095D884200D003E0601CC4B2072C65
:1026C000EDDD00BF40F221110998884207D1A948E9
:1026D000007820B1A84802990160039941600AB0CE
:1026E00010BDF8B505460E460024334600221146BB
:1026F00040F201600095FFF756FE074601E0601CBE
:1027000084B23846FFF7E3FE072803D040F6FF7097
:102710008442F4DB40F6FF70844201DB0120F8BD07
:102720000020FCE710B586B004460020FFF717FF35
:1027300010B9002006B010BD02A803AB04AA05A979
:10274000CDE900040020FFF71CFF0598122805D1F1
:102750009DF8100010B99DF80C0008B100200290FF
:102760009DF80800E6E7F8B505460E460024334616
:102770000022114640F201700095FFF714FE074653
:1027800001E0601C84B23846FFF7A1FE072803D0A1
:1027900040F6FF708442F4DB40F6FF70844201DBB8
:1027A0000120F8BD0020FCE7F8B506460D460024E0
:1027B00008230022114630460095FFF7F4FD074636
:1027C00001E0601C84B23846FFF781FE072803D081
:1027D00040F6FF708442F4DB40F6FF70844201DB78
:1027E0000120F8BD0020FCE72DE9FC5F634800688C
:1027F000002801DD002406E060480068002801DAB6
:10280000022400E001245E480068002801DD002564
:1028100006E05B480068002801DA022500E0012597
:1028200058480068002801DD002606E05548006889
:10283000002801DA022600E001265348006800283B
:1028400001DD002706E050480068002801DA022771
:1028500000E001274D494E48006808F073FD4D49DE
:10286000009008F06FFB019008F0ECFC1FFA80F874
:1028700046494948006808F065FD4649009008F05F
:1028800061FB019008F0DEFC1FFA80F93F494348E4
:10289000006808F057FD3F49009008F053FB019095
:1028A00008F0D0FC1FFA80FA3D48808800F500400F
:1028B0001FFA80FB3B48007808B9012000E00020A7
:1028C0003849087008460078C8B94FEA28203649C8
:1028D000087081F801804FEA2920887081F8039000
:1028E0004FEA2A20087181F805A04FEA2B20887151
:1028F00081F807B04FF48070FFF756FF30E01F49B2
:102900000868002801DB014600E04142264A1170B8
:10291000104644701A490868002801DB014600E0AF
:102920004142214A91701046C57016490868002836
:1029300001DB014600E041421B4A1171104646711D
:1029400011490868002801DB014600E04142164AAF
:1029500091711046C771014640F20110FFF724FF44
:10296000BDE8FC9FB06500400C6400400A0C0F13EA
:10297000181E2500770000206700002008000020B6
:102980000C00002010000020140000200000C842AD
:10299000900000200060EA4694000020980000208B
:1029A00024020020220100207D000020D048D149CF
:1029B0004860D14848607047CE48006940F08000C8
:1029C000CC4908617047CB48C16801F0010008B1EB
:1029D0000120704701F0040008B10220F9E701F07E
:1029E000100008B10320F4E70020F2E770B50446B8
:1029F00000BFFFF7E8FF0546012D00D006E00120EB
:102A0000FDF7D4FC601E84B2002CF2D100BF04B9E3
:102A1000FF25284670BD70B50546002445F6FF70B9
:102A2000FFF7E4FF0446C4B9B248006940F0020071
:102A3000B049086108464561006940F040000861FE
:102A400045F6FF70FFF7D2FF0446012C05D0A948D8
:102A5000006920F00200A7490861204670BD70B5EA
:102A600005460E46FF20FFF7C1FF044694B9A14872
:102A7000006940F001009F4908612E80FF20FFF7A8
:102A8000B5FF0446012C05D09A48006920F00100EA
:102A900098490861204670BD0146088870472DE9B5
:102AA000F04105460E461746002407E036F814109C
:102AB0002846FFF7D4FFAD1C601C84B2BC42F5DB96
:102AC000BDE8F08130B503460C461546002207E00C
:102AD0001846FFF7E1FF24F812009B1C501C82B23D
:102AE000AA42F5DB30BD2DE9F05F80468A461746E5
:102AF000B8F1006F02D38148804501D3BDE8F09F53
:102B0000FFF754FFA8F1006B4FEA9B25CBF3480970
:102B1000C9F50074A74200DC3C464EE04FF000616E
:102B200001EB85208A147649FFF7CCFF00260BE0E5
:102B300009EB0600724931F810004FF6FF71884228
:102B400000D003E0701C86B2A642F1DB00BFA642B3
:102B50001BDA4FF0006101EB8520FFF75CFF0026D8
:102B600008E03AF8160006EB0901654A22F8110060
:102B7000701C86B2A642F4DB4FF0006101EB8520A9
:102B80008A145F49FFF78BFF04E022465146404616
:102B9000FFF785FFA74200D110E06D1C4FF0000940
:102BA0000AEB440A08EB4408381B87B2B7F5007FEC
:102BB00002DD4FF4007400E03C46AFE700BFFFF7D2
:102BC000FBFE00BF9AE713B50446012201A9204687
:102BD000FFF789FF1CBD10B50A224A494A48FFF792
:102BE00071FF484800884FF6FF7188422DD1454853
:102BF0004088884229D143488088884225D141486D
:102C0000C088884221D13F48008988421DD13D4873
:102C10004089884219D13B488089884215D11E20BD
:102C20003A49086040F6B8303949086039483A49AD
:102C3000086000203949086039483A4908603A4834
:102C40003A4908603A49086025E02E4800882F4933
:102C500008602C4840882E4908602A49888808F076
:102C600029FB2D4908602749C88808F023FB2B4918
:102C700008602449088908F01DFB2A490860214999
:102C8000488908F017FB294908601E49888908F01F
:102C900011FB2749086010BD10B51C480088254964
:102CA00008801B48008848801B48006808F0CAFA62
:102CB000204988801948006808F0C4FA1D49C88076
:102CC0001848006808F0BEFA1A49088117480068D9
:102CD00008F0B8FA174948811548006808F0B2FAB8
:102CE000144988810A220848FFF7FDFE10BD000044
:102CF0002301674500200240AB89EFCD00000108A9
:102D0000BA0600206002002000E00008BC0000209D
:102D1000C00000200000A041A8000020AC0000205E
:102D200000004843B000002000004041B4000020F3
:102D3000B8000020740200206849088000BF67497D
:102D4000091F098801F040010029F8D070472DE9DA
:102D5000F05F05460E46300108F0ACFA8146604946
:102D600005FB01F008F0A6FA8246494608F058F93A
:102D70000746384608F066FA84B2204608F09AFA08
:102D80008346394608F0DBFB82464FF0834108F06A
:102D9000D9FA814608F056FA80464FF6FF7000EAED
:102DA000041404EB080084B24E48806940F001002E
:102DB0004C4988610846806940F0100088610846E7
:102DC000C06940F48020C8614748406820F47F40D3
:102DD000454948600846406840F40B404860084652
:102DE000C06840F48060C8604048406840F010000F
:102DF0003E4948603B48006940F4802039490861F9
:102E00000846006920F4802008613448001D0480D1
:102E1000001D008842F20C01084330490831088047
:102E20000846008840F4807008800846008840F01A
:102E3000200008800223272201210020FDF70AFB41
:102E4000BDE8F09F10B52548001F008800F0200065
:102E5000002841D02648007850B926480078401C08
:102E6000C0B2244908700A2802DD012020490870F8
:102E70001A480088C4B2204608F01CFA1E490860AF
:102E80001E48007868B91E480078FE2809D11D4800
:102E90000078FF2805D101201849087000201A4940
:102EA00008701648007801280FD11848164909788B
:102EB000445415480078401C1349087008460078AF
:102EC000082802D100200D4908700D4800780D49EE
:102ED00008700B48047000BF002010BD044800407B
:102EE00040420F000010024000100140000001406D
:102EF0007800002026010020600000207A000020D9
:102F00002401002025010020230100206F00002063
:102F1000FD48806940F00400FB49886108468069EB
:102F200040F010008861F948006820F47060F749AB
:102F300008600846006840F400600860F248806954
:102F400040F01000F0498861F04800684FF2F0014D
:102F50008843EE4908600846006843F230010843A0
:102F6000EA490860EA48006820F47020E8490860EF
:102F70000846006840F440300860704738B50446A1
:102F8000012000900020E3494870012000902DE0CE
:102F9000BDF80000204018B10120DF49086002E0C0
:102FA0000020DD4908600120DC4908600520FDF7AC
:102FB000FDF90020DA49C1F890010520FDF7F6F986
:102FC0000120D749C1F89001D648D0F8080130B1A6
:102FD000D0484078BDF800100843CE494870BDF88D
:102FE00000004FF6FF7101EA40000090BDF80000BC
:102FF000FF28CDDD1020FDF7D9F938BD10B5002030
:10300000C54908310860C8490878FFF7B7FFC649C5
:103010004878FFF7B3FF0120C249C1F88C01BD48D1
:103020004078732801D1002010BD0120FCE71CB5B9
:1030300000200190012000900020B749083108606D
:10304000B9490878FFF79AFFB7494878FFF796FF24
:103050000220019035E00120009026E00120AF49D8
:1030600008600520FDF7A2F90020AD49C1F89001E4
:103070000520FDF79BF90120A949C1F89001A94855
:10308000D0F8080150B1A3489DF80410405CBDF889
:10309000001008439F499DF804208854BDF80000A3
:1030A0004FF6FF7101EA40000090BDF80000FF28D4
:1030B000D4DD1020FDF77AF99DF80400401CC0B261
:1030C00001909DF804000928C5DB012092490831D0
:1030D00008601CBD002004E000218E4A1154411CF0
:1030E000C8B20928F8DB704710B5FFF7F3FFFFF708
:1030F0009EFF8848C0788749097940EA01208B49BA
:10310000088000240FE08A4810F81400401E0121B6
:1031100001FA00F085490988084010B9601CC0B266
:1031200010BD601CC4B2102CEDDB0020F8E7014696
:103130007848405C704770B505460C4600207649DB
:10314000083108601020FDF731F90120FFF716FF64
:103150004220FFF713FF0020FFF710FF2846FFF77C
:103160000DFF2046FFF70AFF0020FFF707FF0020B2
:10317000FFF704FF0020FFF701FF0020FFF7FEFE2E
:1031800001206849C1F88C011020FDF70FF970BDCE
:1031900010B500206049083108601020FDF706F9DD
:1031A0000120FFF7EBFE4220FFF7E8FE0020FFF7CB
:1031B000E5FE0020FFF7E2FE0020FFF7DFFE012022
:1031C0005849C1F88C011020FDF7F0F810BD10B57A
:1031D00000205149083108601020FDF7E7F8012070
:1031E000FFF7CCFE4320FFF7C9FE0020FFF7C6FE25
:1031F0000120FFF7C3FE0020FFF7C0FE0020FFF70D
:10320000BDFE0020FFF7BAFE0020FFF7B7FE00204A
:10321000FFF7B4FE01204349C1F88C011020FDF7EF
:10322000C5F810BD10B500203B49083108600120E9
:10323000FFF7A4FE4420FFF7A1FE0020FFF79EFE4B
:103240000120FFF79BFE0320FFF798FE0020FFF709
:1032500095FE0020FFF792FE0020FFF78FFE002072
:10326000FFF78CFE01202F49C1F88C011020FDF7DB
:103270009DF810BD10B500202749083108601020C6
:10328000FDF794F80120FFF779FE4D20FFF776FE59
:103290000020FFF773FE0020FFF770FE0120FFF70C
:1032A0006DFE01201F49C1F88C011020FDF77EF84A
:1032B00010BD10B500201849083108601020FDF736
:1032C00075F80120FFF75AFE4320FFF757FE002054
:1032D000FFF754FE0020FFF751FE5A20FFF74EFE85
:1032E0005A20FFF74BFE5A20FFF748FE5A20FFF7FF
:1032F00045FE5A20FFF742FE01200A49C1F88C0121
:103300001020FDF753F810BD0010024000100140DE
:1033100000080140BA0A00208401224290012142A3
:1033200000002142000022422A0100202801002042
:103330002C01002010B5FFF72BFFFFF729FFFFF747
:1033400027FFFFF744FFFFF76DFFFFF7B2FF10BD48
:1033500010B50E48007898B10720FFF7E8FE0C4939
:1033600008600820FFF7E3FE0A4908600520FFF720
:10337000DEFE094908600620FFF7D9FE074908600C
:10338000FFF7B2FE0649086010BD0000790000207A
:10339000C4000020C8000020CC000020D000002085
:1033A000D40000200C48806940F020000A49886160
:1033B0000A48006820F47060084908600846006800
:1033C00040F40060086005480C30006840F00400DC
:1033D00002490C310860704700100240001401409F
:1033E0002DE9F04704460E461546FE49284607F0EB
:1033F000A9FF824684F000493146484607F0A2FD05
:103400008046514608F0A6F8074607F0FFFEF64949
:103410000860F449284607F095FF8046314620466B
:1034200007F090FD8146414608F094F8074607F002
:10343000EDFEEE490860EB49284607F083FF82461F
:1034400084F000493146484607F07CFD80465146ED
:1034500007F078FD074607F0D9FEE5490860E14925
:10346000284607F06FFF80463146204607F06AFD88
:103470008146414607F066FD074607F0C7FEDD4975
:103480000860BDE8F0872DE9F04704460E46154672
:10349000D449284607F056FF824684F00049314659
:1034A000484607F04FFD8046514608F053F807465E
:1034B00007F0ACFED0490860CA49284607F042FF31
:1034C00080463146204607F03DFD8146414608F0E2
:1034D00041F8074607F09AFEC8490860C1492846E6
:1034E00007F030FF824684F000493146484607F035
:1034F00029FD8046514607F025FD074607F086FE68
:10350000BF490860B749284607F01CFF804631468E
:10351000204607F017FD8146414607F013FD074698
:1035200007F074FEB7490860BDE8F08770B504463F
:103530000020002C06DD2518B34E35800025B34E43
:10354000356007E004F5E1552D1AAF4E35800125B1
:10355000AE4E3560002909DDC1F5E1552D1AAA4EA0
:10356000361D35800125AA4E356007E04D420544E1
:10357000A54E361D35800025A54E3560002A0ADD92
:10358000C2F5E1552D1AA04E0836358001259F4E13
:10359000361D356008E0554205449B4E083635809F
:1035A00000259A4E361D3560002B08DD1D18964EFD
:1035B0000C3635800025964E361D356009E003F542
:1035C000E1552D1A904E0C3635800125904E361D52
:1035D000356070BD8F4909684242914202DA41422A
:1035E0008C4A11608B490968814201DD8949086074
:1035F000894909684242914202DA4142864A116091
:1036000085490968814201DD834908608349096869
:103610004242914202DA4142804A11607F49096880
:10362000814201DD7D4908607D490968424291423D
:1036300002DA41427A4A116079490968814201DD22
:103640007749086070472DE9F05F04460D46601B1E
:10365000744908600846006807F014FE8346724803
:103660000168584607F06EFE80466E4909686F4A49
:103670001268881A07F006FE83466D4801685846AE
:1036800007F060FE8146414607F05CFC074669484A
:10369000006807F0F7FD8246394607F053FC0646FE
:1036A00007F0B4FD6349086008460068B0F5E15FC3
:1036B00002DD4FF4E15008605E48006810F5E15FFC
:1036C00002DA5D485B49086056480068574908605F
:1036D00058480068BDE8F09F2DE9F05F04460D46AC
:1036E000601B564908600846006807F0CBFD83461A
:1036F0004D480168584607F025FE80464F49096845
:103700004F4A1268881A07F0BDFD83464848016891
:10371000584607F017FE8146414607F013FC07465E
:103720004848006807F0AEFD8246394607F00AFCBB
:10373000064607F06BFD4349086008460068B0F58F
:10374000E15F02DD4FF4E15008603E48006810F58B
:10375000E15F02DA38483B49086038480068384978
:10376000086038480068BDE8F09F2DE9F05F044626
:103770000D46601B344908600846006807F082FD6A
:10378000834629480168584607F0DCFD80462E49EB
:1037900009682E4A1268881A07F074FD8346244887
:1037A0000168584607F0CEFD8146414607F0CAFB46
:1037B00007462748006807F065FD8246394607F04E
:1037C000C1FB064607F022FD214908600846006853
:1037D000B0F5E15F02DD4FF4E15008601C4800687D
:1037E00038E000003333F33E4C000020500000204E
:1037F0005400002058000020280000202C00002049
:103800003000002034000020343401409001224276
:10381000808121423C000020400000204400002024
:103820004800002088010020B800002090010020FE
:10383000B40000208C010020E0E3FFFF7C010020A9
:103840008401002080010020700100207801002008
:103850007401002010F5E15F02DAFE48FE490860BD
:10386000FE480068FE490860FB480068BDE8F09F1C
:103870002DE9F05F04460D46601BFA4908600846D2
:10388000006807F0FFFC8346F7480168584607F0D8
:1038900059FD8046F3490968F44A1268881A07F00E
:1038A000F1FC8346F2480168584607F04BFD81461B
:1038B000414607F047FB0746EE48006807F0E2FC88
:1038C0008246394607F03EFB064607F09FFCE94971
:1038D000086008460068B0F5E15F02DD4FF4E15092
:1038E0000860E448006810F5E15F02DAD948E14970
:1038F0000860DC480068DD490860DE480068BDE813
:10390000F09F30B5DC4C24684542AC4202DA4442B8
:10391000D94D2C60D84C2468844201DDD64C2060FF
:10392000D64C24684D42AC4202DA4C42D34D2C6056
:10393000D24C24688C4201DDD04C2160D04C2468EC
:103940005542AC4202DA5442CD4D2C60CC4C246836
:10395000944201DDCA4C2260CA4C24685D42AC42EC
:1039600002DA5C42C74D2C60C64C24689C4201DDE3
:10397000C44C236030BD0146002901DA484200E012
:10398000084670472DE9F04F89B0BF48006807F03E
:10399000ADFA8246BD480CC8504607F0BDF9044652
:1039A0000D46BB48006807F0A1FA8246B9480CC82A
:1039B000504607F0B1F906460F46B748006807F0D1
:1039C00095FA8246B5480CC8504607F0A5F98046DE
:1039D0008946002213462046294606F0A5FE0DD151
:1039E000002213463046394606F09EFE06D10022DC
:1039F00013464046494606F097FE26D042464B46BF
:103A00004046494606F062FF32463B46CDE9040196
:103A10003046394606F05AFF22462B46CDE90001D2
:103A20002046294606F052FF8246DDE9002306F0D3
:103A300067FCCDE90201DDE9042306F061FCCDE974
:103A4000060106F005FC964A03C2002213462046F2
:103A5000294606F069FE0DD100221346304639464C
:103A600006F062FE06D1002213464046494606F0A3
:103A70005BFE12D04046494606F010FC82463046B6
:103A8000394606F00BFC83462046294606F006FC24
:103A9000524659460790FFF7F6FC82480068FFF748
:103AA0006AFF814909684843019006F0BFFECDE9ED
:103AB00002017B480CC8029806F0DEFC824606F044
:103AC0006FFE079079480068FFF755FF764909684F
:103AD00000FB01FA504606F0A9FECDE9000170484E
:103AE0000CC8009806F0C8FCCDE9020106F058FEAB
:103AF00006906F480068FFF73EFF6B49096848432E
:103B0000019006F093FECDE9020165480CC80298C9
:103B100006F0B2FC824606F043FE05906548006858
:103B2000FFF729FF604909684843019006F07EFECF
:103B300082465B480CC8504606F09EFCCDE9020167
:103B400006F02EFE049005A90EC9FFF7DAFE4E48D6
:103B5000006807F0CBF94D4A03C24D48006807F0F2
:103B6000C5F94C4A03C24C48006807F0BFF94B4AFC
:103B700003C209B0BDE8F08F2DE9F04704460D46B9
:103B8000601B07F07FFB4C490860084601684B4802
:103B9000006807F0D7F94949086049494748006873
:103BA00007F09CFC02D24748444908604649434814
:103BB000006807F093FB02D244484049086044483B
:103BC00001683D48006807F0C5FC8046414801682F
:103BD000404607F0B7FB06463F494048006807F0FB
:103BE0001FFA824635480168504607F0ABFB804615
:103BF000314801683A48006807F0A4FB8146414615
:103C000007F0A0F90746314607F09CF935490860EE
:103C1000294800682E4908603248006807F0F6FA23
:103C2000BDE8F0872DE9F04704460D46601B07F01C
:103C300029FB2D490860084601682C48006807F0F8
:103C400081F92A4908601E492848006807F046FCA7
:103C500051D24DE0E0E3FFFF74010020700100202D
:103C60007801002064010020B80000206C010020D1
:103C7000B4000020680100203C000020400000202B
:103C800044000020480000209C000020D8010020B3
:103C9000A0000020E0010020A4000020E801002096
:103CA000F001002034000020BC0000203000002083
:103CB0002C00002028000020C4010020CC0100209E
:103CC0000050C34700401C460050C3C700401CC6FC
:103CD000D0010020B00000200000C842AC0000204D
:103CE000A8000020C8010020B4010020BC01002071
:103CF000FD48FE490860FE49FC48006807F0EEFAFE
:103D000002D2FC48F9490860FB480168FB4800689A
:103D100007F020FC8046FA480168404607F012FB95
:103D20000646F849F848006807F07AF98246EF48F5
:103D30000168504607F006FB8046F0480168F348EA
:103D4000006807F0FFFA8146414607F0FBF8074696
:103D5000314607F0F7F8EE490860E8480068E649A0
:103D60000860EB48006807F051FABDE8F0872DE9DC
:103D7000F04704460D46601B07F084FAE5490860E9
:103D800008460168E448006807F0DCF8E24908608A
:103D9000E249E148006807F0A1FB02D2D248DE49BF
:103DA0000860D349DC48006807F098FA02D2D1488D
:103DB000D9490860DA480168D648006807F0CAFBAC
:103DC0008046CF480168404607F0BCFA0646CD4918
:103DD000CD48006807F024F98246CF480168504674
:103DE00007F0B0FA8046CB480168C848006807F081
:103DF000A9FA8146414607F0A5F80746314607F083
:103E0000A1F8C8490860C3480068C5490860C548AA
:103E1000006807F0FBF9BDE8F0872DE9F04704469C
:103E20000D46601B07F02EFABF490860084601687E
:103E3000BE48006807F086F8BC490860B749BB482F
:103E4000006807F04BFB02D2A748B8490860A849B0
:103E5000B648006807F042FA02D2A648B3490860A3
:103E6000B3480168B048006807F074FB8046A44876
:103E70000168404607F066FA0646A249A248006873
:103E800007F0CEF88246A9480168504607F05AFA72
:103E90008046A54801689D48006807F053FA8146AE
:103EA000414607F04FF80746314607F04BF8A14965
:103EB00008609D4800689E4908609E48006807F0B9
:103EC000A5F9BDE8F0872DE9F04704464FF07C5A8C
:103ED0004FF00109002C71D19748007809286ED263
:103EE000DFE800F07F05122330414E5F6E000020B6
:103EF0009249086051469248006807F023F89049BB
:103F000008604FF001098BE051468C48006807F0CB
:103F100019F88A49086051468948006807F012F884
:103F2000874908604FF001097AE0514683480068EC
:103F300007F008F8814908600020814908604FF0C7
:103F400001096DE051467D48006806F0FBFF7B49A2
:103F5000086051467A48006807F0FCFA7849086022
:103F60004FF001095CE00020744908605146744834
:103F7000006807F0EFFA724908604FF001094FE05E
:103F800051466E48006807F0E5FA6C4908605146F2
:103F90006B48006807F0DEFA694908604FF00109D4
:103FA0003EE051466548006807F0D4FA634908606E
:103FB0000020634908604FF0010931E00EE110E094
:103FC00051465E48006807F0C5FA5C4908605146F2
:103FD0005B48006806F0B6FF594908604FF00109D8
:103FE0001EE04FF000095548006806F07FFF0746C5
:103FF000544A554B06F040FA054606F04FF94F4932
:1040000008604F48006806F071FF07464D4A4E4B66
:1040100006F032FA054606F041F94949086000BF4A
:1040200000BFB9F1000F23D14848007801280AD118
:1040300051464748006807F08DFA4549086000205E
:104040004449086014E04448007801280AD15146E8
:104050003F48006806F076FF3D49086000203D4972
:10406000086005E000203A4908603C48394908608A
:10407000B9F1010F06D100203449087036490870A3
:104080003349086036480068404207F0FBF80546AF
:104090002A480168284607F021FA06D2304800680D
:1040A000404207F0EFF8254908602D48006807F006
:1040B000E9F8054621480168284607F00FF905D2BE
:1040C0002748006807F0DEF81C49086024480068AB
:1040D000404207F0D7F8054619480168284607F01E
:1040E000FDF945D21E483DE000401C46BC010020C1
:1040F0000050C3C700401CC6C0010020B40100200E
:10410000B00000200000C842AC000020A800002041
:10411000B8010020A4010020AC0100200050C347DA
:10412000B0010020A8010020940100209C01002083
:10413000A001002098010020020000209C00002027
:10414000A0000020CDCCCCCCCCCCF03F0000002097
:10415000A40000205C010020010000206F12833BBE
:10416000BC0000200068404207F08CF8FE4908605F
:10417000FE48006807F086F80546FB4801682846B7
:1041800007F0ACF805D2F948006807F07BF8F6496B
:104190000860F6480068404207F074F80546F448A5
:1041A0000168284607F09AF906D2F04800684042B4
:1041B00007F068F8EE490860EC48006807F062F81C
:1041C0000546EB480168284607F088F805D2E7481D
:1041D000006807F057F8E6490860E0E0012CFCD1E0
:1041E000E44800780B286FD2DFE800F0D7061632DB
:1041F000425E6F8B9BB7C700DF48006807F042F84C
:104200000546D9480168284606F09CFED649086054
:104210000120DA490870C1E0D748006807F032F899
:104220000546D7480168284606F08CFED449086048
:104230000220D2490870D048006807F023F80546EC
:10424000C9480168284606F07DFEC7490860A5E018
:10425000C948006807F016F80546C94801682846AD
:1042600006F070FEC64908600320C449087095E056
:10427000C148006807F006F80546C14801682846AD
:1042800006F060FEBE4908600420BC490870BA48C8
:10429000006806F0F7FF0546B3480168284607F0B6
:1042A0004EF9B149086079E0B348006806F0EAFFCA
:1042B0000546AD480168284607F041F9AA4908605B
:1042C0000520AE49087069E067E0AB48006806F079
:1042D000D9FF0546AA480168284607F030F9A849E1
:1042E00008600620A5490870A348006806F0CAFFC8
:1042F00005469D480168284607F021F99A4908605B
:104300004CE09D48006806F0BDFF05469C480168EA
:10431000284607F014F99A49086007209749087061
:104320003CE09548006806F0ADFF054694480168FA
:10433000284607F004F99249086008208F49087060
:104340008D48006806F09EFF0546874801682846AC
:1043500006F0F8FD8449086020E08748006806F010
:1043600091FF054682480168284607F0E8F8804931
:10437000086009208149087010E07F48006806F055
:1043800081FF05467A480168284606F0DBFD78493A
:1043900008600A207949087000E000BF00BF744837
:1043A00002687148016876480068FFF719F8BDE8AF
:1043B000F087014640F6AC02914215DA0120002256
:1043C000704B1A801B1D1A801B1D1A801B1D1A8022
:1043D0006D4B1A606D4BC3F880216B4B1B1D1A602F
:1043E0006A4BC3F8842100E0002070472DE9F84FA4
:1043F00014276748007800286FD1664800780128A4
:1044000003D065480078012868D164480078012805
:1044100046D16248C07900F0040008B9012401E0E7
:104420004FF0FF345D48C07900F0020008B9012563
:1044300001E04FF0FF355948C07900F0010008B99C
:10444000012601E04FF0FF3654498A78497802EBA3
:10445000012101FB04F006F015FF494908604F49AE
:104460000A79C97802EB012101FB05F006F00AFF89
:104470003D49086049498A79497902EB012101FBEC
:1044800006F006F0FFFE3A49086008460268364822
:1044900001683B480068FEF7A3FF00204049086020
:1044A0003E48007802283BD13C48C07900F0080023
:1044B00008B9012401E04FF0FF343848C07900F01A
:1044C000040008B9012501E04FF0FF353348C079F9
:1044D00000F0020018B9012603E0A8E021E04FF047
:1044E000FF362E48C07900F0010010B94FF0010BE3
:1044F00001E04FF0FF3B29484078604329490860BC
:10450000264880786843284908602448C07870436A
:10451000264908602148007900FB0BF02449086017
:10452000D4E0244800780128FAD123480068A0F19B
:10453000800822480068A0F1800921480068A0F1A5
:10454000800A7842804503DDB84501DA4FF0000863
:104550007842814503DDB94501DA4FF00009784220
:10456000824532DDBA452DE0A0000020BC000020CD
:10457000A400002002000020C00000205101002003
:104580009C000020343401409001224200802142EE
:1045900066000020770000207800002067000020DF
:1045A0005C0100204C00002050000020540000203E
:1045B0005800002079000020C4000020C80000201E
:1045C000CC00002001DA4FF0000AFE48006808FB2A
:1045D00000F0C82190FBF1F0009006F053FEFA497C
:1045E0000860C9F10000F74909684843C82190FBF9
:1045F000F1F0009006F046FEF4490860CAF10000B0
:10460000F04909684843C82190FBF1F0009006F09A
:1046100039FEEF49086008460268EC480168EA483C
:104620000068FEF7DDFE0020EA4908604EE0EA4837
:10463000007801284AD1E9480078012846D1E748A6
:10464000C07900F0040008B9012401E04FF0FF3404
:10465000E248C07900F0020008B9012501E04FF0FE
:10466000FF35DE48C07900F0010008B9012601E0FD
:104670004FF0FF36D9498A78497802EB012101FBD6
:1046800004F006F0FFFDD0490860D4490A79C978E2
:1046900002EB012101FB05F006F0F4FDCB490860B7
:1046A000CE498A79497902EB012101FB06F006F037
:1046B000E9FDC749086008460268C4480168C24865
:1046C0000068FEF78DFE0020C2490860BDE8F88F43
:1046D00010B56420FCF734FC0446022C07D1C04816
:1046E000007808B9012000E00020BD49087010BD25
:1046F00070B5BC48006800287ED14FF40040BA492C
:104700000860BA48007808B9012000E00020B749E5
:104710000870B748007801280BD1B6480078401CD3
:10472000C0B2B44908700A2803D100200870B0490B
:104730000870AE480078012815D1AF48007860B9FC
:10474000AE48007848B9AE480078012805D1A348A2
:10475000AC490A6802604968416003F00FFBFFF74B
:10476000B7FF002070BD0220FDF713FA142190FB63
:10477000F1F0A5490860A548006809680844A34904
:1047800008600320FDF705FA142190FBF1F0A04921
:104790000860A0480068096808449E490860042031
:1047A000FDF7F7F94042142190FBF1F09A490860B7
:1047B0009A48006809680844984908600520FDF790
:1047C000E8F94042142190FBF1F0954908609548C2
:1047D0000068096808449349086003F0CFFA642030
:1047E000FCF76EFBFCF741FF054606F04BFD044667
:1047F0008D480168204600E0C8E006F0A3FB8A4926
:1048000008604FF07E518948006806F09BFB87499D
:1048100004460860864906F0C5FC0ED184498248EA
:10482000006806F0FDFB044606F0F0FC81490860D4
:1048300000207D4908607D4908607F4800680428A1
:1048400007D101206D49087000207C4908706C492F
:1048500008707A480078012807D069480078012854
:1048600003D066480078012801D1FFF7BFFD554805
:104870000068002806DD534800680F2802DA0F2080
:10488000504908606B480068FFF793FD00287DD110
:104890005148007800287AD168480078002877D1FC
:1048A000574800780028FAD1544800780028F6D1FB
:1048B00063480068002861D16248006801280AD175
:1048C0006148006838B9002260491046FEF788FD4B
:1048D00001205D4908605C480068012811D15C48EE
:1048E00000685C490968084459490860084600683E
:1048F000B0F57A7F05DB0220534908600020544957
:10490000086051480068022807D100225249104629
:10491000FEF766FD03204C4908604B4800680328F9
:1049200011D14E4800684B49096808444B4908605A
:104930000846006810F57A7F05DC042042490860CB
:1049400000204649086040480068042816D100222B
:1049500011461046FEF744FD3A480068012805D18B
:10496000002211461046FEF73BFD07E000203649C5
:10497000086033480068401C3149086030480068CE
:1049800000286DD02F480068012802E077E1FEE0A2
:10499000DCE00FD12C48006860B90A48006806F0D6
:1049A00071FC0446002221461046FEF719FD012045
:1049B0002549086024480068012863D1244800681C
:1049C00024494EE0BC0000209C000020A0000020F4
:1049D000A40000205C010020660000206700002089
:1049E000040000203C8121421404014050010020B9
:1049F00065000020640000207A000020790000207B
:104A0000780000206F00002008000020180000201F
:104A10000C0000201C0000201000002020000020BE
:104A20001400002024000020580100205401002020
:104A30000000C8425C000020D40000207700002065
:104A4000EC00002008812242E40000200000C04069
:104A5000DC0000204C0000200000C0C0E00000206E
:104A600064E0096808448749086008460068864988
:104A70000968884206DB4FF47A7084490860022096
:104A80008349086082480068022813D10022114639
:104A90001046FEF7A5FC7D480068401E7B49086073
:104AA00008460068002805DA0320794908600020DC
:104AB000744908607648006803280DD1754800687D
:104AC000404206F0DFFB0446002221461046FEF776
:104AD00087FC04206E4908606D480068042813D1E3
:104AE0006D4800686D49096808446B4908600846CC
:104AF0000068654909684942884205DC0520644927
:104B0000086000206449086061480068052816D1E3
:104B1000002211461046FEF763FC61480068012838
:104B200005D1002211461046FEF75AFC07E000208E
:104B3000574908605B480068401C5A49086054485F
:104B4000006818B958480078FFF7BDF95348016864
:104B500056480068FEF78CFE5549086055480168C4
:104B600055480068FEF701FE544908605448016842
:104B700054480068FEF7B0FD534908605348016887
:104B800053480068FEF75FFD5249086069E05248EB
:104B9000007880B95148007868B95148007850B918
:104BA0005048007818B9FCF74EF84F4908703E4855
:104BB0000078FFF788F9394801684C480068FFF72A
:104BC0002CF900123A4908603A48016848480068E0
:104BD000FFF7CDF8001239490860394801684548A7
:104BE0000068FFF71FF8001237490860374801686E
:104BF00041480068FEF7C0FF0012364908603F4890
:104C00000078022802D0FEF7BDFE06E021480368C6
:104C1000026801680068FEF774FE2548006841429A
:104C200022480068FEF724FE2149086023480068F6
:104C3000414221480068FEF798FD2049086022485B
:104C4000006841421F480068FEF746FD1E490860A3
:104C50002048006841421E480068FEF7F4FC1D49E8
:104C6000086041F6F420FEF7B5FC1A4803681648C0
:104C70000268124801680E480068FEF757FC0020E1
:104C800070E50000DC000020F0000020E8000020BB
:104C9000E4000020BC000020E00000204C000020C8
:104CA00008812242EC00002066000020080000205D
:104CB0003C000020500000200C000020400000209C
:104CC0005400002010000020440000205800002064
:104CD0001400002048000020770000207800002009
:104CE000790000208D000020020000201800002024
:104CF0001C0000202000002024000020670000206D
:104D000038B50446FB4890F82400C0B114B1022025
:104D1000009001E000200090F64A1268D17BF54A2D
:104D2000526810786B460122FDF7A0F810B14FF0E1
:104D3000FF3038BD9DF80010EE48417423E0ED4887
:104D4000807A10B94FF0FF30F3E724B1E948407C96
:104D500008B10020EDE714B10120009001E000202F
:104D60000090E44A1268D17BE24A526810786B46A0
:104D70000122FDF77BF810B14FF0FF30D9E79DF825
:104D80000010DC4841740020D3E738B5002419E056
:104D9000D8480068C07AA04204D0D6480068407D58
:104DA000A04200D10CE0D349496808786B46012243
:104DB0002146FDF7BDF810B14FF0FF3038BD00BF00
:104DC000601CC4B2CB4840680079A042E0DC0020FF
:104DD000F4E770B504460D46C6480068C07AA042A4
:104DE00004D0C4480068407DA04202D14FF0FF309B
:104DF00070BDC04840680079A04202DC4FF0FF302F
:104E0000F6E7BC49496808782B4601222146FDF7A0
:104E10008FF8EDE738B50446B64890F82300A04275
:104E200001D1002038BD14B13020009001E00020F5
:104E30000090B048807C20B19DF8000040F0020056
:104E40000090AC4890F8220020B19DF8000040F09E
:104E500080000090A74A1268117DA64A5268107817
:104E60006B460122FDF702F810B14FF0FF30D9E791
:104E7000A04880F823400020D4E738B5044604F069
:104E8000700010B10120009005E014B100200090E6
:104E900001E040200090974A1268917C954A526840
:104EA00010786B460122FCF7E1FF20B10021914808
:104EB0008172481E38BD9DF8000020F040018D48E9
:104EC00001730020009004F0400020B99DF800001C
:104ED00040F00400009004F0200020B99DF800008C
:104EE00040F00200009004F0100020B99DF800008E
:104EF00040F00100009004F0080020B99DF8000087
:104F000040F0380000907B4A1268D17C794A5268A0
:104F100010786B460122FCF7A9FF20B100217548EB
:104F20008172481EC6E724B1082C02D00020FFF78A
:104F300071FF70488472002101753220FBF752FA2C
:104F40000020B7E738B504466A48807CA04201D10A
:104F5000002038BD002C46D0664A12681179654A97
:104F6000526810786B460122FCF7E2FF10B14FF057
:104F7000FF30EEE79DF8000020F0200000905D4A31
:104F8000126811795B4A526810786B460122FCF76F
:104F90006DFF10B14FF0FF30DBE70320FBF722FA83
:104FA00002200090534890F8220020B19DF80000A4
:104FB00040F0800000904F4890F8230020B19DF809
:104FC000000040F0300000904A4A1268117D494AC2
:104FD000526810786B460122FCF748FF002851D038
:104FE0004FF0FF30B5E7434A12681179414A5268E1
:104FF00010786B460122FCF79BFF10B14FF0FF3099
:10500000A7E73C48807A00F0010028B19DF8000035
:1050100040F02000009004E09DF8000020F0200007
:105020000090344A12681179324A526810786B46FF
:105030000122FCF71BFF10B14FF0FF3089E703207E
:10504000FBF7D0F92B4890F8220010B18020009097
:1050500001E000200090274890F8230020B19DF83F
:10506000000040F030000090224A1268117D214A71
:10507000526810786B460122FCF7F8FE10B14FF031
:10508000FF3066E71B488474002062E708B51948C2
:10509000807A10B94FF0FF3008BD00200090154A0B
:1050A0001268D17B134A526810786B460122FCF7D4
:1050B000DDFE10B14FF0FF30EEE70E4A1268517975
:1050C0000C4A526810786B460122FCF7CFFE10B1F3
:1050D0004FF0FF30E0E7074A12681179054A52683D
:1050E00010786B460122FCF7C1FE28B14FF0FF306B
:1050F000D2E70000F8010020F74890F824000028CB
:1051000050D00C200090F44A12681179F24A52688B
:1051100010786B460122FCF7A9FE10B14FF0FF306A
:10512000BAE7C0200090EC48807A00F0010020B17E
:105130009DF8000040F020000090E74A12681179C5
:10514000E54A526810786B460122FCF78FFE10B1D9
:105150004FF0FF30A0E7E048407C10B10220009003
:1051600001E000200090DC4A1268D17BDA4A5268E4
:1051700010786B460122FCF779FE10B14FF0FF303A
:105180008AE700200090D44A12685179D24A5268C6
:1051900010786B460122FCF769FE002852D04FF0D0
:1051A000FF3079E704200090CB4A12681179CA4A8F
:1051B000526810786B460122FCF758FE10B14FF090
:1051C000FF3069E7C448807C20B9C348807A00F08A
:1051D000010010B94020009001E060200090BE4A1C
:1051E00012681179BC4A526810786B460122FCF7AC
:1051F0003DFE10B14FF0FF304EE7B748407C10B194
:105200000120009001E000200090B34A1268D17B99
:10521000B14A526810786B460122FCF727FE10B1A4
:105220004FF0FF3038E7AC4A12685179AA4A526809
:105230001078A94B10330122FCF718FE10B14FF083
:10524000FF3029E7002027E770B50446002624F048
:105250000104A14890F8240008B1002070BD9E48C8
:10526000807A10B94FF0FF30F8E79B48057C807AD0
:105270002040994908740846007CA04202D04FF0B3
:10528000FF3600E0002614B99348007D18B10120D4
:10529000FFF736FD02E00020FFF732FD3CB1FFF7DB
:1052A000F5FE20B18C4805744FF0FF30D6E730464C
:1052B000D4E738B504468848807A10B94FF0FF30FB
:1052C00038BDBC2C02DB0120009015E0622C02DB13
:1052D0000220009010E02A2C02DB032000900BE05B
:1052E000142C02DB0420009006E00A2C02DB0520CF
:1052F000009001E0062000907748C07A9DF80010E9
:10530000884201D10020DBE7734A12689178724A23
:10531000526810786B460122FCF7A8FD10B14FF0DF
:10532000FF30CDE79DF800106B48C1720020C7E741
:1053300038B50446282C02DD4FF0FF3038BDDCB90B
:105340000020FFF767FD00208DF8000007208DF892
:105350000100614A1268917C5F4A526810786B467E
:105360000222FCF783FD10B14FF0FF30E6E7002189
:10537000594801750020E1E70120FFF74BFD20208F
:105380008DF80000012C06D100208DF801000520C9
:10539000FFF78FFF17E0052C06DC01208DF80100D8
:1053A0000520FFF786FF0EE0142C06DC02208DF8A6
:1053B00001000A20FFF77DFF05E003208DF80100C2
:1053C0001420FFF776FF9DF80100072101EB801004
:1053D000C0B28DF80100404A1268917C3E4A526882
:1053E00010786B460222FCF741FD10B14FF0FF3000
:1053F000A4E7082138488172002101730121017559
:105400000020FFF721FF002098E738B50446324816
:10541000807A10B94FF0FF3038BD2F4890F8240043
:1054200010B14FF0FF30F7E72B48007D50B134B199
:10543000282C04DCE0B2FFF77BFF0020ECE7002023
:10544000FFF776FF042C01DA042404E0B4F57A7F38
:1054500001DD4FF47A744FF47A7090FBF4F0401E43
:10546000C0B200901C4A126851781B4A52681078EA
:105470006B460122FCF7FAFC10B14FF0FF30CBE78E
:105480009DF80000401C4FF47A7191FBF0F081B25E
:105490001148C1810146C9894810FFF70AFF002061
:1054A000BAE738B504460C48807A10B94FF0FF309F
:1054B00038BD022C06D0042C07D0082C08D0102CA4
:1054C0000FD10BE0002000900EE0082000900BE0D0
:1054D0001020009008E00000F80100201820009043
:1054E00002E04FF0FF30E3E700BFF948407A9DF853
:1054F0000010B0EBE10F01D10020D9E7F44A1268A7
:10550000D179F34A526810786B460122FCF7AEFC61
:1055100010B14FF0FF30CBE79DF80000C110EC4810
:1055200041720020C4E738B50446E948807A10B9D2
:105530004FF0FF3038BDFA2C09D0B4F5FA7F09D00E
:10554000B4F57A7F09D0B4F5FA6F0CD108E00020E9
:1055500000900BE00820009008E01020009005E08B
:105560001820009002E04FF0FF30E3E700BFD8487A
:10557000007A9DF80010B0EBE10F01D10020D9E7CF
:10558000D34A12689179D24A526810786B46012248
:10559000FCF76CFC10B14FF0FF30CBE79DF800003A
:1055A000C010CB4908720020C4E71CB580208DF8DC
:1055B0000000C74A1268917CC54A526810786B4651
:1055C0000122FCF753FC10B14FF0FF301CBD6420EA
:1055D000FAF708FF00208DF80000BD4A1268917CA0
:1055E000BB4A526810786B460122FCF73FFC10B1B1
:1055F0004FF0FF30EAE7B64A1268917DB44A52682C
:1056000010786B460622FCF793FC10B14FF0FF3088
:10561000DCE79DF80500C007400F9DF8031001F07E
:10562000010140EA41009DF8011001F0010140EA4A
:10563000010494B1012C03D10121A548C17431E0CA
:10564000022C03D10021A248C1742BE02146A1A065
:1056500003F040FB4FF0FF30B8E79D4A1268D17865
:105660009B4A526810786B460122FCF761FC10B12E
:105670004FF0FF30AAE79DF8000000F00F042CB9AE
:105680009E4803F027FB4FF0FF309FE7042C06D124
:105690009BA003F01FFB01218D48C17402E0002193
:1056A0008B48C174FF218A488172FF2088490872A3
:1056B000FF2187484172C1724FF6FF71C181FF21FE
:1056C000017481740121017380F82210002180F897
:1056D00023104175017516300160416081601638F4
:1056E00080F8241080F82510C1844FF4FA60FFF789
:1056F0001AFF10B14FF0FF3068E70220FFF7D1FE2C
:1057000010B14FF0FF3061E72A20FFF7D2FD10B152
:105710004FF0FF305AE73220FFF777FE10B14FF01D
:10572000FF3053E70020FFF78FFD10B14FF0FF303F
:105730004CE70020FFF706FC10B14FF0FF3045E7C3
:105740000020FFF79AFB002040E770477CB5044635
:105750000D465F48807A00F0700010B94FF0FF30BE
:105760007CBD5B4A1268117B594A526810786B46BF
:105770000622FCF7DDFB10B14FF0FF30F0E79DF89B
:1057800001009DF8001040EA012000B220809DF841
:1057900003009DF8021040EA012000B260809DF8ED
:1057A00005009DF8041040EA012000B2A08015B168
:1057B0002846FFF7CAFF0020D2E77CB504460D4615
:1057C0004348807A00F0080010B94FF0FF307CBDEC
:1057D0003F4A1268517B3E4A526810786B46062257
:1057E000FCF7A6FB10B14FF0FF30F0E79DF8010089
:1057F0009DF8001040EA012000B220809DF80300CF
:105800009DF8021040EA012000B260809DF805007A
:105810009DF8041040EA012000B2A08015B128468E
:10582000FFF793FF0020D2E72DE9FE4F05460C4617
:105830002748807A18B94FF0FF30BDE8FE8F244A20
:105840001268917B224A5268107802AB0222FCF760
:105850006FFB10B14FF0FF30EFE79DF809009DF8A6
:10586000081040EA012006B214B12046FFF76DFF90
:1058700017494968C88805F01DFD15490190496818
:10588000B1F9080005F0FEFC8346304605F0FAFC4D
:105890005946009005F05EFE8246019905F0C0FB76
:1058A00081461F4905F04EFB80464FF08F4105F0C1
:1058B00049FD074605F0AAFC28600020BDE710B5A9
:1058C00088B004461CB94FF0FF3008B010BD29E085
:1058D000F8010020556E737570706F7274656420E6
:1058E000736F6674776172652070726F647563742C
:1058F000207265762025642E0A00000058CF00082B
:1059000048616C662073656E736974697669747931
:10591000207061727420666F756E642E0D0A00002F
:1059200000000C42206830B9606820B9A06810B946
:10593000002008B010BDFA494968087806AB032278
:105940001146FCF7F5FA10B14FF0FF30F1E79DF882
:105950001800082101EB201000F00F00ADF8000046
:105960009DF8190001EB201000F00F00ADF80200C7
:105970009DF81A0001EB201000F00F00ADF80400B4
:1059800020684100BDF90000403091FBF0F000B20A
:10599000ADF8100060684100BDF90200403091FB95
:1059A000F0F000B2ADF81200A0684100BDF90400AB
:1059B000403091FBF0F000B2ADF81400D8494968CE
:1059C000087806AB06221146FCF7B2FA10B14FF088
:1059D000FF30AEE79DF819009DF8181040EA01204D
:1059E00000B2ADF808009DF81B009DF81A1040EABF
:1059F000012000B2ADF80A009DF81D009DF81C10B2
:105A000040EA012000B2ADF80C00BDF81000BDF86E
:105A10000810084400B2ADF81000BDF81200BDF83F
:105A20000A10084400B2ADF81200BDF81400BDF829
:105A30000C10084400B2ADF81400BDF81000000AC4
:105A40008DF81800BDF81000C0B28DF81900BDF82F
:105A50001200000A8DF81A00BDF81200C0B28DF8CD
:105A60001B00BDF81400000A8DF81C00BDF81400DE
:105A7000C0B28DF81D00AA494968087806AB062215
:105A80001146FCF7F3F910B14FF0FF3051E7002059
:105A90004FE70146A248007A30B1012807D002281A
:105AA00009D003280FD10AE0FA2008800EE04FF455
:105AB000FA7008800AE04FF47A70088006E04FF42C
:105AC000FA60088002E00020088000BF00BF0020CC
:105AD000704701469248407A30B1012807D0022829
